:100000000C942A000C94E8000C9447000C944700D0
:100010000C9447000C9447000C9447000C94470044
:100020000C9447000C9447000C9447000C94470034
:100030000C9447000C9447000C9447000C94470024
:100040000C9447000C9447000C9447000C94470014
:100050000C94470011241FBECFE5D8E0DEBFCDBF12
:1000600010E0A0E6B0E0EAEBF6E002C005900D92E9
:10007000A236B107D9F720E0A2E6B0E001C01D9298
:10008000A636B207E1F70E9402020C945B030C94BF
:100090000000CF93DF938091600090916100892BE5
:1000A000D9F5C0916400D0916500C130D105C9F483
:1000B0000E9486010E94E2010E94FB010E94E7016A
:1000C0000E94EC010E94B3010E940C010E94F10108
:1000D0000E94A80181E090E090936100809360000D
:1000E0001DC00E9486010E94B3010E94EC010E9483
:1000F0000C010E94A8010E94FB010E94F1010E94D4
:10010000E2010E94D70181E090E09093610080932A
:100110006000C1E0D0E002C0C0E0D0E0CE01DF91DD
:10012000CF91089560B3647084E40E94F60060E0AB
:1001300081E40E94FA0061E081E40E94FA0062E03A
:1001400081E40E94FA0060E082E40E94FA0061E02B
:1001500082E40E94FA0062E082E40E94FA000E94B7
:100160000901789485B7836085BF8BB780648BBFA6
:1001700008950E9486010E94D7010E9449000197BC
:10018000C1F30E940C010E944900019791F30E9463
:10019000CC010E944900019761F30E94C7010E94AF
:1001A0004900019731F30E94B3010E944900019771
:1001B00001F30E940C010E9449000197D1F20E94B4
:1001C000A8010E9449000197A1F20E94C701D1CF66
:1001D0001F920F920FB60F9211241092610010928D
:1001E00060000F900FBE0F901F90189540E00E9486
:1001F0000702089541E00E940702089540E00E942E
:100200008102089541E00E94810208950E94F9024E
:10021000089513BE12BE089583B7816083BF109204
:100220006300109262000FC008B600FEFDCF88B7D1
:10023000816088BF809162009091630001969093E5
:1002400063008093620080916200909163008C341F
:100250009C4414F4829BE8CF1092630010926200D9
:1002600013BE089583B7816083BF19C008B600FE2E
:10027000FDCF88B7816088BF809162009091630054
:100280000196909363008093620061EA77E00E9498
:100290003303892B21F461E082E40E9406018091FE
:1002A0006200909163008C349C4414F4829BDECFF6
:1002B000109263001092620013BE089583B78160AC
:1002C00083BF17C008B600FEFDCF88B7816088BF26
:1002D00080916200909163000196909363008093F7
:1002E000620061EA77E00E943303892B11F40E94D7
:1002F0009F0180916200909163008C349C4414F3C0
:10030000109263001092620013BE089560E081E4D1
:100310000E94020160E082E40E94020161E081E447
:100320000E94020161E082E40E94020162E081E435
:100330000E94020162E082E40E940201089561E0ED
:1003400082E40E94060161E081E40E9406010895B2
:1003500081E090E0909365008093640062E082E425
:100360000E9402010895109265001092640062E0FC
:1003700082E40E94FE00089581E090E09093650081
:100380008093640061E082E40E94020108950E946B
:1003900032010E94BC01089581E090E090936500D5
:1003A0008093640060E082E40E940201089581E08D
:1003B00090E0909365008093640060E082E40E9486
:1003C000FE00089562E081E40E94FE00089562E06C
:1003D00081E40E940201089560E081E40E94FE0031
:1003E000089560E081E40E940201089561E081E4E3
:1003F0000E94020108950E945E010E94F6010E947F
:10040000BC0108950E9492000E94B900FDCF823481
:1004100031F118F4813439F008958334E1F18434F2
:1004200009F454C0089541110CC02AB381E090E052
:1004300002C0880F991F6A95E2F7809582238ABBD4
:100440000895413009F05CC02AB381E090E002C019
:10045000880F991F6A95E2F7822B8ABB0895411194
:100460000CC027B381E090E002C0880F991F6A9505
:10047000E2F78095822387BB0895413009F040C0A0
:1004800027B381E090E002C0880F991F6A95E2F7D8
:10049000822B87BB089541110CC024B381E090E00A
:1004A00002C0880F991F6A95E2F78095822384BB6A
:1004B0000895413029F524B381E090E002C0880F0F
:1004C000991F6A95E2F7822B84BB089541110CC0F5
:1004D00021B381E090E002C0880F991F6A95E2F78E
:1004E0008095822381BB0895413051F421B381E08E
:1004F00090E002C0880F991F6A95E2F7822B81BBBA
:100500000895823429F118F4813439F00895833440
:10051000D1F1843409F452C00895413061F42BB311
:1005200081E090E002C0880F991F6A95E2F78095FC
:1005300082238BBB089541115BC02BB381E090E017
:1005400002C0880F991F6A95E2F7822B8BBB089532
:10055000413061F428B381E090E002C0880F991F18
:100560006A95E2F78095822388BB0895411140C0C7
:1005700028B381E090E002C0880F991F6A95E2F7E6
:10058000822B88BB0895413061F425B381E090E06F
:1005900002C0880F991F6A95E2F78095822385BB78
:1005A0000895411125C025B381E090E002C0880F75
:1005B000991F6A95E2F7822B85BB0895413061F45B
:1005C00022B381E090E002C0880F991F6A95E2F79C
:1005D0008095822382BB089541110AC022B381E035
:1005E00090E002C0880F991F6A95E2F7822B82BBC8
:1005F00008958234B9F018F4813431F008958334C9
:10060000E1F0843429F108958BB380588BBB2BB370
:1006100081E090E002C0880F991F6A95E2F7822777
:100620008BBB089528B381E090E002C0880F991F2A
:100630006A95E2F7822788BB089525B381E090E0B0
:1006400002C0880F991F6A95E2F7822785BB08953B
:1006500022B381E090E002C0880F991F6A95E2F70B
:10066000822782BB089597FB072E16F4009407D0CB
:1006700077FD09D00E94470307FC05D03EF4909512
:1006800081959F4F0895709561957F4F0895AA1B9E
:10069000BB1B51E107C0AA1FBB1FA617B70710F06D
:1006A000A61BB70B881F991F5A95A9F7809590959F
:0A06B000BC01CD010895F894FFCFBE
:0206BA0001003D
:00000001FF
